{
  "transactions": [
    {
      "hash": "0x4b8e3eeb8cefb7f2bad41d01aa880d5c7d44fa61532b4c41378148ae3030c7a0",
      "transactionType": "CALL",
      "contractName": null,
      "contractAddress": "0x9fb3b0f858faa11b4d43b37c2b81ebbb14ff9faa",
      "function": "joinGame(bytes32[])",
      "arguments": [
        "[0x1ee63ae23fba3b1af0e30baa89b79e00193935ea9b9543f62b78f0b6385efd70, 0x2bb35e499f8cb77c333df64bf07dbf52885c27b5c26eb83654dc956f44aeba00, 0x1ba83d0d530a2a7784ac08f73f5507550c851552f170a6685068d3f78d29b920, 0x20ddfc254a35314d202574123c02421788a45d4c1ff3491232b9494ea6193c84, 0x1ea6c3a57c58edf4d20a808c96f4034e8fefa0bcedea27799ecfa8b7cdbafc90]"
      ],
      "transaction": {
        "from": "0x0b4a86d53a47f643427f041dca2e212e615d65e7",
        "to": "0x9fb3b0f858faa11b4d43b37c2b81ebbb14ff9faa",
        "gas": "0x36b85",
        "value": "0x0",
        "input": "0x782acdb2000000000000000000000000000000000000000000000000000000000000002000000000000000000000000000000000000000000000000000000000000000051ee63ae23fba3b1af0e30baa89b79e00193935ea9b9543f62b78f0b6385efd702bb35e499f8cb77c333df64bf07dbf52885c27b5c26eb83654dc956f44aeba001ba83d0d530a2a7784ac08f73f5507550c851552f170a6685068d3f78d29b92020ddfc254a35314d202574123c02421788a45d4c1ff3491232b9494ea6193c841ea6c3a57c58edf4d20a808c96f4034e8fefa0bcedea27799ecfa8b7cdbafc90",
        "nonce": "0x56",
        "chainId": "0xaa36a7"
      },
      "additionalContracts": [],
      "isFixedGasLimit": false
    }
  ],
  "receipts": [
    {
      "status": "0x1",
      "cumulativeGasUsed": "0x1a7b69c",
      "logs": [
        {
          "address": "0x9fb3b0f858faa11b4d43b37c2b81ebbb14ff9faa",
          "topics": [
            "0x8a44143a4a1535cb341d09e28740c882cf040ac20850bf7c2f3f615fa8a1e2a1",
            "0x0000000000000000000000000b4a86d53a47f643427f041dca2e212e615d65e7"
          ],
          "data": "0x",
          "blockHash": "0x5763633d023627894727a16670b60a8d924d0272f7b1dd41f12a6e7f4b2e4b00",
          "blockNumber": "0x8d3ae2",
          "blockTimestamp": "0x68d13944",
          "transactionHash": "0x4b8e3eeb8cefb7f2bad41d01aa880d5c7d44fa61532b4c41378148ae3030c7a0",
          "transactionIndex": "0x68",
          "logIndex": "0xb1",
          "removed": false
        }
      ],
      "logsBloom": "0x00000000200000000000000000000000000000000000000000000000000000000000000000000000000000000000000000000000000000000000000000000000000000000000000000000000000000000000000000000000000000000000000000000000000000000000000000000000000000000000000000000000000000000000000000000000000000400000000000000000000000000800000000000000000000000000000000000000000000000000002001000000000000000000000000000000000000000000400000080000000000000000000000000000002000000000001000000000000000000000000000000000000000000000000000000000",
      "type": "0x2",
      "transactionHash": "0x4b8e3eeb8cefb7f2bad41d01aa880d5c7d44fa61532b4c41378148ae3030c7a0",
      "transactionIndex": "0x68",
      "blockHash": "0x5763633d023627894727a16670b60a8d924d0272f7b1dd41f12a6e7f4b2e4b00",
      "blockNumber": "0x8d3ae2",
      "gasUsed": "0x279dd",
      "effectiveGasPrice": "0xf6e54",
      "from": "0x0b4a86d53a47f643427f041dca2e212e615d65e7",
      "to": "0x9fb3b0f858faa11b4d43b37c2b81ebbb14ff9faa",
      "contractAddress": null
    }
  ],
  "libraries": [],
  "pending": [],
  "returns": {},
  "timestamp": 1758542149,
  "chain": 11155111,
  "commit": "1a18a0c"
}