{
  "transactions": [
    {
      "hash": "0x88ff937b70ea49b716da0fd6ec98a7f3e570268ae1ddeb7fd45035ed83c71726",
      "transactionType": "CALL",
      "contractName": null,
      "contractAddress": "0x4641a22821bbf7e3dce07f00808b013dfbb21178",
      "function": "joinGame(bytes32[])",
      "arguments": [
        "[0x1ee63ae23fba3b1af0e30baa89b79e00193935ea9b9543f62b78f0b6385efd70, 0x2bb35e499f8cb77c333df64bf07dbf52885c27b5c26eb83654dc956f44aeba00, 0x1ba83d0d530a2a7784ac08f73f5507550c851552f170a6685068d3f78d29b920, 0x20ddfc254a35314d202574123c02421788a45d4c1ff3491232b9494ea6193c84, 0x1ea6c3a57c58edf4d20a808c96f4034e8fefa0bcedea27799ecfa8b7cdbafc90]"
      ],
      "transaction": {
        "from": "0x0b4a86d53a47f643427f041dca2e212e615d65e7",
        "to": "0x4641a22821bbf7e3dce07f00808b013dfbb21178",
        "gas": "0x36b85",
        "value": "0x0",
        "input": "0x782acdb2000000000000000000000000000000000000000000000000000000000000002000000000000000000000000000000000000000000000000000000000000000051ee63ae23fba3b1af0e30baa89b79e00193935ea9b9543f62b78f0b6385efd702bb35e499f8cb77c333df64bf07dbf52885c27b5c26eb83654dc956f44aeba001ba83d0d530a2a7784ac08f73f5507550c851552f170a6685068d3f78d29b92020ddfc254a35314d202574123c02421788a45d4c1ff3491232b9494ea6193c841ea6c3a57c58edf4d20a808c96f4034e8fefa0bcedea27799ecfa8b7cdbafc90",
        "nonce": "0x35",
        "chainId": "0xaa36a7"
      },
      "additionalContracts": [],
      "isFixedGasLimit": false
    }
  ],
  "receipts": [
    {
      "status": "0x1",
      "cumulativeGasUsed": "0x18b5f4d",
      "logs": [
        {
          "address": "0x4641a22821bbf7e3dce07f00808b013dfbb21178",
          "topics": [
            "0x8a44143a4a1535cb341d09e28740c882cf040ac20850bf7c2f3f615fa8a1e2a1",
            "0x0000000000000000000000000b4a86d53a47f643427f041dca2e212e615d65e7"
          ],
          "data": "0x",
          "blockHash": "0x1200f6d39a9bfa62a72fb29c74e913bade5bfad0bf3f9461a32e91c41e2592d7",
          "blockNumber": "0x8d1f7b",
          "blockTimestamp": "0x68cfeb18",
          "transactionHash": "0x88ff937b70ea49b716da0fd6ec98a7f3e570268ae1ddeb7fd45035ed83c71726",
          "transactionIndex": "0x54",
          "logIndex": "0x66",
          "removed": false
        }
      ],
      "logsBloom": "0x00000000200000000000000000000000000800000000000000000000000000000000000000000000000000000000000000000000000000000000000000000000000000000800000000000000000000000000000400000000000000000000000000000000000000000000000000000000000000000000000000000000000000000000000000000000000000400000000000000000000000000800000000000000000000000000000000000000000000000000002000000000000000000000000000000000000000000000000000000000000000000000000000000000002000000000001000000000000000000000000000000000000000000000000000000000",
      "type": "0x2",
      "transactionHash": "0x88ff937b70ea49b716da0fd6ec98a7f3e570268ae1ddeb7fd45035ed83c71726",
      "transactionIndex": "0x54",
      "blockHash": "0x1200f6d39a9bfa62a72fb29c74e913bade5bfad0bf3f9461a32e91c41e2592d7",
      "blockNumber": "0x8d1f7b",
      "gasUsed": "0x279dd",
      "effectiveGasPrice": "0xf67ca",
      "from": "0x0b4a86d53a47f643427f041dca2e212e615d65e7",
      "to": "0x4641a22821bbf7e3dce07f00808b013dfbb21178",
      "contractAddress": null
    }
  ],
  "libraries": [],
  "pending": [],
  "returns": {},
  "timestamp": 1758456601,
  "chain": 11155111,
  "commit": "464f2ec"
}