{
  "transactions": [
    {
      "hash": "0x1f6d46fa2c5c553d73ea50940a0941d4c489f2f22a674f28495c083e7f0255f8",
      "transactionType": "CALL",
      "contractName": null,
      "contractAddress": "0xb509d73a10255e2eb0b74720d257ecdd7c2d6153",
      "function": "joinGame(address,bytes32[])",
      "arguments": [
        "0x0b4A86d53A47f643427f041DCA2E212E615d65E7",
        "[0x1ee63ae23fba3b1af0e30baa89b79e00193935ea9b9543f62b78f0b6385efd70, 0x2bb35e499f8cb77c333df64bf07dbf52885c27b5c26eb83654dc956f44aeba00, 0x1ba83d0d530a2a7784ac08f73f5507550c851552f170a6685068d3f78d29b920, 0x20ddfc254a35314d202574123c02421788a45d4c1ff3491232b9494ea6193c84, 0x1ea6c3a57c58edf4d20a808c96f4034e8fefa0bcedea27799ecfa8b7cdbafc90]"
      ],
      "transaction": {
        "from": "0x0b4a86d53a47f643427f041dca2e212e615d65e7",
        "to": "0xb509d73a10255e2eb0b74720d257ecdd7c2d6153",
        "gas": "0x365ca",
        "value": "0x0",
        "input": "0x1f217c1e0000000000000000000000000b4a86d53a47f643427f041dca2e212e615d65e7000000000000000000000000000000000000000000000000000000000000004000000000000000000000000000000000000000000000000000000000000000051ee63ae23fba3b1af0e30baa89b79e00193935ea9b9543f62b78f0b6385efd702bb35e499f8cb77c333df64bf07dbf52885c27b5c26eb83654dc956f44aeba001ba83d0d530a2a7784ac08f73f5507550c851552f170a6685068d3f78d29b92020ddfc254a35314d202574123c02421788a45d4c1ff3491232b9494ea6193c841ea6c3a57c58edf4d20a808c96f4034e8fefa0bcedea27799ecfa8b7cdbafc90",
        "nonce": "0x1b",
        "chainId": "0xaa36a7"
      },
      "additionalContracts": [],
      "isFixedGasLimit": false
    }
  ],
  "receipts": [
    {
      "status": "0x1",
      "cumulativeGasUsed": "0x12048cc",
      "logs": [],
      "logsBloom": "0x00000000000000000000000000000000000000000000000000000000000000000000000000000000000000000000000000000000000000000000000000000000000000000000000000000000000000000000000000000000000000000000000000000000000000000000000000000000000000000000000000000000000000000000000000000000000000000000000000000000000000000000000000000000000000000000000000000000000000000000000000000000000000000000000000000000000000000000000000000000000000000000000000000000000000000000000000000000000000000000000000000000000000000000000000000000",
      "type": "0x2",
      "transactionHash": "0x1f6d46fa2c5c553d73ea50940a0941d4c489f2f22a674f28495c083e7f0255f8",
      "transactionIndex": "0x34",
      "blockHash": "0x1c4a4a2a69fcd4333c752cd7968109e07502aaf2ab0d871aa01622244ea9f56e",
      "blockNumber": "0x8d0bff",
      "gasUsed": "0x275b7",
      "effectiveGasPrice": "0xf8362",
      "from": "0x0b4a86d53a47f643427f041dca2e212e615d65e7",
      "to": "0xb509d73a10255e2eb0b74720d257ecdd7c2d6153",
      "contractAddress": null
    }
  ],
  "libraries": [],
  "pending": [],
  "returns": {},
  "timestamp": 1758393408,
  "chain": 11155111,
  "commit": "be6c389"
}