{
  "transactions": [
    {
      "hash": "0xd8911c4e390259c67e0daa09460cd1e994a72b9a13cd08478a6ca0019e95899b",
      "transactionType": "CALL",
      "contractName": null,
      "contractAddress": "0xd9a52fa0d49af562773a34433c769a4f03cb6552",
      "function": "joinGame(address,bytes32[])",
      "arguments": [
        "0x0b4A86d53A47f643427f041DCA2E212E615d65E7",
        "[0x1ee63ae23fba3b1af0e30baa89b79e00193935ea9b9543f62b78f0b6385efd70, 0x2bb35e499f8cb77c333df64bf07dbf52885c27b5c26eb83654dc956f44aeba00, 0x1ba83d0d530a2a7784ac08f73f5507550c851552f170a6685068d3f78d29b920, 0x20ddfc254a35314d202574123c02421788a45d4c1ff3491232b9494ea6193c84, 0x1ea6c3a57c58edf4d20a808c96f4034e8fefa0bcedea27799ecfa8b7cdbafc90]"
      ],
      "transaction": {
        "from": "0x0b4a86d53a47f643427f041dca2e212e615d65e7",
        "to": "0xd9a52fa0d49af562773a34433c769a4f03cb6552",
        "gas": "0x365e8",
        "value": "0x0",
        "input": "0x1f217c1e0000000000000000000000000b4a86d53a47f643427f041dca2e212e615d65e7000000000000000000000000000000000000000000000000000000000000004000000000000000000000000000000000000000000000000000000000000000051ee63ae23fba3b1af0e30baa89b79e00193935ea9b9543f62b78f0b6385efd702bb35e499f8cb77c333df64bf07dbf52885c27b5c26eb83654dc956f44aeba001ba83d0d530a2a7784ac08f73f5507550c851552f170a6685068d3f78d29b92020ddfc254a35314d202574123c02421788a45d4c1ff3491232b9494ea6193c841ea6c3a57c58edf4d20a808c96f4034e8fefa0bcedea27799ecfa8b7cdbafc90",
        "nonce": "0x23",
        "chainId": "0xaa36a7"
      },
      "additionalContracts": [],
      "isFixedGasLimit": false
    }
  ],
  "receipts": [
    {
      "status": "0x1",
      "cumulativeGasUsed": "0x22a8665",
      "logs": [],
      "logsBloom": "0x00000000000000000000000000000000000000000000000000000000000000000000000000000000000000000000000000000000000000000000000000000000000000000000000000000000000000000000000000000000000000000000000000000000000000000000000000000000000000000000000000000000000000000000000000000000000000000000000000000000000000000000000000000000000000000000000000000000000000000000000000000000000000000000000000000000000000000000000000000000000000000000000000000000000000000000000000000000000000000000000000000000000000000000000000000000",
      "type": "0x2",
      "transactionHash": "0xd8911c4e390259c67e0daa09460cd1e994a72b9a13cd08478a6ca0019e95899b",
      "transactionIndex": "0x78",
      "blockHash": "0xbf2bd011aed8f19c133ce2721c95bfdd9182d57e6a1f27bf7c1d199d5ead1cb8",
      "blockNumber": "0x8d1b25",
      "gasUsed": "0x275cd",
      "effectiveGasPrice": "0xfcff2",
      "blobGasUsed": "0x0",
      "from": "0x0b4a86d53a47f643427f041dca2e212e615d65e7",
      "to": "0xd9a52fa0d49af562773a34433c769a4f03cb6552",
      "contractAddress": null
    }
  ],
  "libraries": [],
  "pending": [],
  "returns": {},
  "timestamp": 1758442553,
  "chain": 11155111,
  "commit": "7953cfe"
}