{
  "transactions": [
    {
      "hash": "0x0735d7105513d4f2f36b0ed7643f379de717005ac3c720b6844140866746e836",
      "transactionType": "CALL",
      "contractName": null,
      "contractAddress": "0x7b74d1d3a7caa6c98706b1351b015b2d30ff039e",
      "function": "joinGame(address,bytes32[])",
      "arguments": [
        "0x0b4A86d53A47f643427f041DCA2E212E615d65E7",
        "[0x1ee63ae23fba3b1af0e30baa89b79e00193935ea9b9543f62b78f0b6385efd70, 0x2bb35e499f8cb77c333df64bf07dbf52885c27b5c26eb83654dc956f44aeba00, 0x1ba83d0d530a2a7784ac08f73f5507550c851552f170a6685068d3f78d29b920, 0x20ddfc254a35314d202574123c02421788a45d4c1ff3491232b9494ea6193c84, 0x1ea6c3a57c58edf4d20a808c96f4034e8fefa0bcedea27799ecfa8b7cdbafc90]"
      ],
      "transaction": {
        "from": "0x0b4a86d53a47f643427f041dca2e212e615d65e7",
        "to": "0x7b74d1d3a7caa6c98706b1351b015b2d30ff039e",
        "gas": "0x36c0c",
        "value": "0x0",
        "input": "0x1f217c1e0000000000000000000000000b4a86d53a47f643427f041dca2e212e615d65e7000000000000000000000000000000000000000000000000000000000000004000000000000000000000000000000000000000000000000000000000000000051ee63ae23fba3b1af0e30baa89b79e00193935ea9b9543f62b78f0b6385efd702bb35e499f8cb77c333df64bf07dbf52885c27b5c26eb83654dc956f44aeba001ba83d0d530a2a7784ac08f73f5507550c851552f170a6685068d3f78d29b92020ddfc254a35314d202574123c02421788a45d4c1ff3491232b9494ea6193c841ea6c3a57c58edf4d20a808c96f4034e8fefa0bcedea27799ecfa8b7cdbafc90",
        "nonce": "0x24",
        "chainId": "0xaa36a7"
      },
      "additionalContracts": [],
      "isFixedGasLimit": false
    }
  ],
  "receipts": [
    {
      "status": "0x1",
      "cumulativeGasUsed": "0x1304722",
      "logs": [
        {
          "address": "0x7b74d1d3a7caa6c98706b1351b015b2d30ff039e",
          "topics": [
            "0x8a44143a4a1535cb341d09e28740c882cf040ac20850bf7c2f3f615fa8a1e2a1",
            "0x0000000000000000000000000b4a86d53a47f643427f041dca2e212e615d65e7"
          ],
          "data": "0x",
          "blockHash": "0xec308c3dc51da1aa82a0ab7a76f56537a40683e62683cd50a0f86bfbdd7166e2",
          "blockNumber": "0x8d1c84",
          "blockTimestamp": "0x68cfc4d8",
          "transactionHash": "0x0735d7105513d4f2f36b0ed7643f379de717005ac3c720b6844140866746e836",
          "transactionIndex": "0x1f",
          "logIndex": "0x2f",
          "removed": false
        }
      ],
      "logsBloom": "0x00000000200000000000000000000000000000000000000000000000000000000000000000000000000001000000000000000000000000000000000000000000000000000000000000000000000000000000000000000000000000000000000000000000000000000000000000000000040000000000000000000000000000000000000000000000000000400000000000000000000000000800000000000000000000000000000000000000000000000000002000000000000000000000000000000000000000000000000000000000000000000000000000000000002000000000001000000000000000000000020000000000000000000000000000000000",
      "type": "0x2",
      "transactionHash": "0x0735d7105513d4f2f36b0ed7643f379de717005ac3c720b6844140866746e836",
      "transactionIndex": "0x1f",
      "blockHash": "0xec308c3dc51da1aa82a0ab7a76f56537a40683e62683cd50a0f86bfbdd7166e2",
      "blockNumber": "0x8d1c84",
      "gasUsed": "0x27a3f",
      "effectiveGasPrice": "0x1027be",
      "from": "0x0b4a86d53a47f643427f041dca2e212e615d65e7",
      "to": "0x7b74d1d3a7caa6c98706b1351b015b2d30ff039e",
      "contractAddress": null
    }
  ],
  "libraries": [],
  "pending": [],
  "returns": {},
  "timestamp": 1758446810,
  "chain": 11155111,
  "commit": "ff40837"
}