{
  "transactions": [
    {
      "hash": "0x7729fbef18052482c6d477ab13ffb31e4340270ce9085f70277596800fbb596c",
      "transactionType": "CALL",
      "contractName": null,
      "contractAddress": "0x155e78fb3b3d7995b1d56b7a4c0894f7ebde4002",
      "function": "joinGame(address,bytes32[])",
      "arguments": [
        "0x0b4A86d53A47f643427f041DCA2E212E615d65E7",
        "[0x1ee63ae23fba3b1af0e30baa89b79e00193935ea9b9543f62b78f0b6385efd70, 0x2bb35e499f8cb77c333df64bf07dbf52885c27b5c26eb83654dc956f44aeba00, 0x1ba83d0d530a2a7784ac08f73f5507550c851552f170a6685068d3f78d29b920, 0x20ddfc254a35314d202574123c02421788a45d4c1ff3491232b9494ea6193c84, 0x1ea6c3a57c58edf4d20a808c96f4034e8fefa0bcedea27799ecfa8b7cdbafc90]"
      ],
      "transaction": {
        "from": "0x0b4a86d53a47f643427f041dca2e212e615d65e7",
        "to": "0x155e78fb3b3d7995b1d56b7a4c0894f7ebde4002",
        "gas": "0x365ca",
        "value": "0x0",
        "input": "0x1f217c1e0000000000000000000000000b4a86d53a47f643427f041dca2e212e615d65e7000000000000000000000000000000000000000000000000000000000000004000000000000000000000000000000000000000000000000000000000000000051ee63ae23fba3b1af0e30baa89b79e00193935ea9b9543f62b78f0b6385efd702bb35e499f8cb77c333df64bf07dbf52885c27b5c26eb83654dc956f44aeba001ba83d0d530a2a7784ac08f73f5507550c851552f170a6685068d3f78d29b92020ddfc254a35314d202574123c02421788a45d4c1ff3491232b9494ea6193c841ea6c3a57c58edf4d20a808c96f4034e8fefa0bcedea27799ecfa8b7cdbafc90",
        "nonce": "0x1f",
        "chainId": "0xaa36a7"
      },
      "additionalContracts": [],
      "isFixedGasLimit": false
    }
  ],
  "receipts": [
    {
      "status": "0x1",
      "cumulativeGasUsed": "0x13ae099",
      "logs": [],
      "logsBloom": "0x00000000000000000000000000000000000000000000000000000000000000000000000000000000000000000000000000000000000000000000000000000000000000000000000000000000000000000000000000000000000000000000000000000000000000000000000000000000000000000000000000000000000000000000000000000000000000000000000000000000000000000000000000000000000000000000000000000000000000000000000000000000000000000000000000000000000000000000000000000000000000000000000000000000000000000000000000000000000000000000000000000000000000000000000000000000",
      "type": "0x2",
      "transactionHash": "0x7729fbef18052482c6d477ab13ffb31e4340270ce9085f70277596800fbb596c",
      "transactionIndex": "0x49",
      "blockHash": "0x0a901bc11e588403e93df8b82c3bf1e06fcd7568d7acc7805b9166ff34d44036",
      "blockNumber": "0x8d1a2b",
      "gasUsed": "0x275b7",
      "effectiveGasPrice": "0xfae3b",
      "blobGasUsed": "0x0",
      "from": "0x0b4a86d53a47f643427f041dca2e212e615d65e7",
      "to": "0x155e78fb3b3d7995b1d56b7a4c0894f7ebde4002",
      "contractAddress": null
    }
  ],
  "libraries": [],
  "pending": [],
  "returns": {},
  "timestamp": 1758439526,
  "chain": 11155111,
  "commit": "ae8f99a"
}