{
  "transactions": [
    {
      "hash": "0xfe7bd7532ac3f93027c9480d0de2447217197c930437c59eee3468cfdbc7afef",
      "transactionType": "CALL",
      "contractName": null,
      "contractAddress": "0xb8b8a3dec24f02531525f4f48ff74230af58d36f",
      "function": "joinGame(address,bytes32[])",
      "arguments": [
        "0x0b4A86d53A47f643427f041DCA2E212E615d65E7",
        "[0x1ee63ae23fba3b1af0e30baa89b79e00193935ea9b9543f62b78f0b6385efd70, 0x2bb35e499f8cb77c333df64bf07dbf52885c27b5c26eb83654dc956f44aeba00, 0x1ba83d0d530a2a7784ac08f73f5507550c851552f170a6685068d3f78d29b920, 0x20ddfc254a35314d202574123c02421788a45d4c1ff3491232b9494ea6193c84, 0x1ea6c3a57c58edf4d20a808c96f4034e8fefa0bcedea27799ecfa8b7cdbafc90]"
      ],
      "transaction": {
        "from": "0x0b4a86d53a47f643427f041dca2e212e615d65e7",
        "to": "0xb8b8a3dec24f02531525f4f48ff74230af58d36f",
        "gas": "0x36c2c",
        "value": "0x0",
        "input": "0x1f217c1e0000000000000000000000000b4a86d53a47f643427f041dca2e212e615d65e7000000000000000000000000000000000000000000000000000000000000004000000000000000000000000000000000000000000000000000000000000000051ee63ae23fba3b1af0e30baa89b79e00193935ea9b9543f62b78f0b6385efd702bb35e499f8cb77c333df64bf07dbf52885c27b5c26eb83654dc956f44aeba001ba83d0d530a2a7784ac08f73f5507550c851552f170a6685068d3f78d29b92020ddfc254a35314d202574123c02421788a45d4c1ff3491232b9494ea6193c841ea6c3a57c58edf4d20a808c96f4034e8fefa0bcedea27799ecfa8b7cdbafc90",
        "nonce": "0x32",
        "chainId": "0xaa36a7"
      },
      "additionalContracts": [],
      "isFixedGasLimit": false
    }
  ],
  "receipts": [
    {
      "status": "0x1",
      "cumulativeGasUsed": "0x241517e",
      "logs": [
        {
          "address": "0xb8b8a3dec24f02531525f4f48ff74230af58d36f",
          "topics": [
            "0x8a44143a4a1535cb341d09e28740c882cf040ac20850bf7c2f3f615fa8a1e2a1",
            "0x0000000000000000000000000b4a86d53a47f643427f041dca2e212e615d65e7"
          ],
          "data": "0x",
          "blockHash": "0x960c7d8372e1be0542df24a4cf391e3d1ff2cd893194476749204d9cf3c703df",
          "blockNumber": "0x8d1efb",
          "blockTimestamp": "0x68cfe4a0",
          "transactionHash": "0xfe7bd7532ac3f93027c9480d0de2447217197c930437c59eee3468cfdbc7afef",
          "transactionIndex": "0x6f",
          "logIndex": "0x9a",
          "removed": false
        }
      ],
      "logsBloom": "0x00000000200000000000000000000000000000000000000000000000000000000000000000000000000000000000000100000000000000000000000000000000000000000000000000000000000000000000000000000000000000000000000000000000000000000000000000000000000000000000000000000000000000000000000000000000000000400000000000000000000000000800000000000000000000000000000000000000000000000000002000000000000000000000000000000000000000000000000000000000000000000000000000000000202000000000001000000000000000000000000000000000000000000000000000000000",
      "type": "0x2",
      "transactionHash": "0xfe7bd7532ac3f93027c9480d0de2447217197c930437c59eee3468cfdbc7afef",
      "transactionIndex": "0x6f",
      "blockHash": "0x960c7d8372e1be0542df24a4cf391e3d1ff2cd893194476749204d9cf3c703df",
      "blockNumber": "0x8d1efb",
      "gasUsed": "0x27a56",
      "effectiveGasPrice": "0xf6d3a",
      "from": "0x0b4a86d53a47f643427f041dca2e212e615d65e7",
      "to": "0xb8b8a3dec24f02531525f4f48ff74230af58d36f",
      "contractAddress": null
    }
  ],
  "libraries": [],
  "pending": [],
  "returns": {},
  "timestamp": 1758454946,
  "chain": 11155111,
  "commit": "404bea4"
}