{
  "transactions": [
    {
      "hash": "0x87cbc09c7d2eb27c8ddacf695b9729355e7884e36705ca6e12a8a01f7a974cc8",
      "transactionType": "CALL",
      "contractName": null,
      "contractAddress": "0x1404e7ebb0bd5e7e28480e0372196490be755d1b",
      "function": "joinGame(address,bytes32[])",
      "arguments": [
        "0x0b4A86d53A47f643427f041DCA2E212E615d65E7",
        "[0x1ee63ae23fba3b1af0e30baa89b79e00193935ea9b9543f62b78f0b6385efd70, 0x2bb35e499f8cb77c333df64bf07dbf52885c27b5c26eb83654dc956f44aeba00, 0x1ba83d0d530a2a7784ac08f73f5507550c851552f170a6685068d3f78d29b920, 0x20ddfc254a35314d202574123c02421788a45d4c1ff3491232b9494ea6193c84, 0x1ea6c3a57c58edf4d20a808c96f4034e8fefa0bcedea27799ecfa8b7cdbafc90]"
      ],
      "transaction": {
        "from": "0x0b4a86d53a47f643427f041dca2e212e615d65e7",
        "to": "0x1404e7ebb0bd5e7e28480e0372196490be755d1b",
        "gas": "0x365e8",
        "value": "0x0",
        "input": "0x1f217c1e0000000000000000000000000b4a86d53a47f643427f041dca2e212e615d65e7000000000000000000000000000000000000000000000000000000000000004000000000000000000000000000000000000000000000000000000000000000051ee63ae23fba3b1af0e30baa89b79e00193935ea9b9543f62b78f0b6385efd702bb35e499f8cb77c333df64bf07dbf52885c27b5c26eb83654dc956f44aeba001ba83d0d530a2a7784ac08f73f5507550c851552f170a6685068d3f78d29b92020ddfc254a35314d202574123c02421788a45d4c1ff3491232b9494ea6193c841ea6c3a57c58edf4d20a808c96f4034e8fefa0bcedea27799ecfa8b7cdbafc90",
        "nonce": "0x21",
        "chainId": "0xaa36a7"
      },
      "additionalContracts": [],
      "isFixedGasLimit": false
    }
  ],
  "receipts": [
    {
      "status": "0x1",
      "cumulativeGasUsed": "0x136f2bb",
      "logs": [],
      "logsBloom": "0x00000000000000000000000000000000000000000000000000000000000000000000000000000000000000000000000000000000000000000000000000000000000000000000000000000000000000000000000000000000000000000000000000000000000000000000000000000000000000000000000000000000000000000000000000000000000000000000000000000000000000000000000000000000000000000000000000000000000000000000000000000000000000000000000000000000000000000000000000000000000000000000000000000000000000000000000000000000000000000000000000000000000000000000000000000000",
      "type": "0x2",
      "transactionHash": "0x87cbc09c7d2eb27c8ddacf695b9729355e7884e36705ca6e12a8a01f7a974cc8",
      "transactionIndex": "0x25",
      "blockHash": "0x0ede0a27a52749df36330490dfaaf0edf80bdcd099b8bec63a76be67631a575c",
      "blockNumber": "0x8d1aca",
      "gasUsed": "0x275cd",
      "effectiveGasPrice": "0x1049cc",
      "blobGasUsed": "0x0",
      "from": "0x0b4a86d53a47f643427f041dca2e212e615d65e7",
      "to": "0x1404e7ebb0bd5e7e28480e0372196490be755d1b",
      "contractAddress": null
    }
  ],
  "libraries": [],
  "pending": [],
  "returns": {},
  "timestamp": 1758441445,
  "chain": 11155111,
  "commit": "180b3c1"
}